{
  "_format": "hh-sol-artifact-1",
  "contractName": "UsBeyondFactory",
  "sourceName": "contracts/UsBeyondFactory.sol",
  "abi": [
    {
      "inputs": [],
      "stateMutability": "nonpayable",
      "type": "constructor"
    },
    {
      "inputs": [
        {
          "internalType": "address",
          "name": "owner",
          "type": "address"
        }
      ],
      "name": "OwnableInvalidOwner",
      "type": "error"
    },
    {
      "inputs": [
        {
          "internalType": "address",
          "name": "account",
          "type": "address"
        }
      ],
      "name": "OwnableUnauthorizedAccount",
      "type": "error"
    },
    {
      "anonymous": false,
      "inputs": [
        {
          "indexed": true,
          "internalType": "address",
          "name": "collectionAddress",
          "type": "address"
        },
        {
          "indexed": true,
          "internalType": "address",
          "name": "owner",
          "type": "address"
        },
        {
          "indexed": false,
          "internalType": "string",
          "name": "name",
          "type": "string"
        },
        {
          "indexed": false,
          "internalType": "string",
          "name": "symbol",
          "type": "string"
        }
      ],
      "name": "CollectionCreated",
      "type": "event"
    },
    {
      "anonymous": false,
      "inputs": [
        {
          "indexed": true,
          "internalType": "address",
          "name": "previousOwner",
          "type": "address"
        },
        {
          "indexed": true,
          "internalType": "address",
          "name": "newOwner",
          "type": "address"
        }
      ],
      "name": "OwnershipTransferred",
      "type": "event"
    },
    {
      "inputs": [
        {
          "internalType": "uint256",
          "name": "",
          "type": "uint256"
        }
      ],
      "name": "collections",
      "outputs": [
        {
          "internalType": "address",
          "name": "collectionAddress",
          "type": "address"
        },
        {
          "internalType": "string",
          "name": "name",
          "type": "string"
        },
        {
          "internalType": "string",
          "name": "symbol",
          "type": "string"
        },
        {
          "internalType": "address",
          "name": "owner",
          "type": "address"
        },
        {
          "internalType": "uint256",
          "name": "createdAt",
          "type": "uint256"
        }
      ],
      "stateMutability": "view",
      "type": "function"
    },
    {
      "inputs": [
        {
          "internalType": "string",
          "name": "name",
          "type": "string"
        },
        {
          "internalType": "string",
          "name": "symbol",
          "type": "string"
        }
      ],
      "name": "createCollection",
      "outputs": [
        {
          "internalType": "address",
          "name": "",
          "type": "address"
        }
      ],
      "stateMutability": "nonpayable",
      "type": "function"
    },
    {
      "inputs": [],
      "name": "getAllCollections",
      "outputs": [
        {
          "components": [
            {
              "internalType": "address",
              "name": "collectionAddress",
              "type": "address"
            },
            {
              "internalType": "string",
              "name": "name",
              "type": "string"
            },
            {
              "internalType": "string",
              "name": "symbol",
              "type": "string"
            },
            {
              "internalType": "address",
              "name": "owner",
              "type": "address"
            },
            {
              "internalType": "uint256",
              "name": "createdAt",
              "type": "uint256"
            }
          ],
          "internalType": "struct UsBeyondFactory.CollectionInfo[]",
          "name": "",
          "type": "tuple[]"
        }
      ],
      "stateMutability": "view",
      "type": "function"
    },
    {
      "inputs": [
        {
          "internalType": "address",
          "name": "owner",
          "type": "address"
        }
      ],
      "name": "getCollectionsByOwner",
      "outputs": [
        {
          "internalType": "address[]",
          "name": "",
          "type": "address[]"
        }
      ],
      "stateMutability": "view",
      "type": "function"
    },
    {
      "inputs": [],
      "name": "owner",
      "outputs": [
        {
          "internalType": "address",
          "name": "",
          "type": "address"
        }
      ],
      "stateMutability": "view",
      "type": "function"
    },
    {
      "inputs": [],
      "name": "renounceOwnership",
      "outputs": [],
      "stateMutability": "nonpayable",
      "type": "function"
    },
    {
      "inputs": [
        {
          "internalType": "address",
          "name": "newOwner",
          "type": "address"
        }
      ],
      "name": "transferOwnership",
      "outputs": [],
      "stateMutability": "nonpayable",
      "type": "function"
    },
    {
      "inputs": [
        {
          "internalType": "address",
          "name": "",
          "type": "address"
        },
        {
          "internalType": "uint256",
          "name": "",
          "type": "uint256"
        }
      ],
      "name": "userCollections",
      "outputs": [
        {
          "internalType": "address",
          "name": "",
          "type": "address"
        }
      ],
      "stateMutability": "view",
      "type": "function"
    }
  ],
  "bytecode": "0x608060405234801561001057600080fd5b50338061003757604051631e4fbdf760e01b81526000600482015260240160405180910390fd5b61004081610046565b50610096565b600080546001600160a01b038381166001600160a01b0319831681178455604051919092169283917f8be0079c531659141344cd1fd0a4f28419497f9722a3daafe3b4186f6b6457e09190a35050565b6128f1806100a56000396000f3fe60806040523480156200001157600080fd5b5060043610620000935760003560e01c80638da5cb5b11620000625780638da5cb5b1462000108578063e178d60c146200011a578063f2fde38b1462000140578063fdbda0ec146200015757600080fd5b8063176b9b751462000098578063428a617114620000cc5780636804a95814620000e3578063715018a614620000fc575b600080fd5b620000af620000a9366004620008c9565b62000181565b6040516001600160a01b0390911681526020015b60405180910390f35b620000af620000dd36600462000951565b6200033b565b620000ed62000374565b604051620000c39190620009c6565b6200010662000542565b005b6000546001600160a01b0316620000af565b620001316200012b36600462000a85565b6200055a565b604051620000c3919062000aaa565b620001066200015136600462000a85565b620005d2565b6200016e6200016836600462000af9565b6200061a565b604051620000c395949392919062000b13565b600080838333604051620001959062000810565b620001a39392919062000b61565b604051809103906000f080158015620001c0573d6000803e3d6000fd5b506040805160a0810182526001600160a01b0383811682526020820188815292820187905233606083015242608083015260018054808201825560009190915282517fb10e2d527612073b26eecdfd717e6a320cf44b4afac2b0732d9fcbe2b7fa0cf6600590920291820180546001600160a01b0319169190931617825592519394508493919283927fb10e2d527612073b26eecdfd717e6a320cf44b4afac2b0732d9fcbe2b7fa0cf7909101906200027a908262000c32565b506040820151600282019062000291908262000c32565b5060608201516003820180546001600160a01b039283166001600160a01b03199182161790915560809093015160049092019190915533600081815260026020908152604080832080546001810182559084529190922001805493871693909416831790935591517f5fead977881b23a0dbf2f905699203f29cefea57a576d2d4f412523191258e84906200032a908a908a9062000cff565b60405180910390a350949350505050565b600260205281600052604060002081815481106200035857600080fd5b6000918252602090912001546001600160a01b03169150829050565b60606001805480602002602001604051908101604052809291908181526020016000905b82821015620005395760008481526020908190206040805160a081019091526005850290910180546001600160a01b031682526001810180549293919291840191620003e49062000ba3565b80601f0160208091040260200160405190810160405280929190818152602001828054620004129062000ba3565b8015620004635780601f10620004375761010080835404028352916020019162000463565b820191906000526020600020905b8154815290600101906020018083116200044557829003601f168201915b505050505081526020016002820180546200047e9062000ba3565b80601f0160208091040260200160405190810160405280929190818152602001828054620004ac9062000ba3565b8015620004fd5780601f10620004d157610100808354040283529160200191620004fd565b820191906000526020600020905b815481529060010190602001808311620004df57829003601f168201915b505050918352505060038201546001600160a01b0316602080830191909152600490920154604090910152908252600192909201910162000398565b50505050905090565b6200054c62000791565b620005586000620007c0565b565b6001600160a01b038116600090815260026020908152604091829020805483518184028101840190945280845260609392830182828015620005c657602002820191906000526020600020905b81546001600160a01b03168152600190910190602001808311620005a7575b50505050509050919050565b620005dc62000791565b6001600160a01b0381166200060c57604051631e4fbdf760e01b8152600060048201526024015b60405180910390fd5b6200061781620007c0565b50565b600181815481106200062b57600080fd5b6000918252602090912060059091020180546001820180546001600160a01b039092169350906200065c9062000ba3565b80601f01602080910402602001604051908101604052809291908181526020018280546200068a9062000ba3565b8015620006db5780601f10620006af57610100808354040283529160200191620006db565b820191906000526020600020905b815481529060010190602001808311620006bd57829003601f168201915b505050505090806002018054620006f29062000ba3565b80601f0160208091040260200160405190810160405280929190818152602001828054620007209062000ba3565b8015620007715780601f10620007455761010080835404028352916020019162000771565b820191906000526020600020905b8154815290600101906020018083116200075357829003601f168201915b50505050600383015460049093015491926001600160a01b031691905085565b6000546001600160a01b03163314620005585760405163118cdaa760e01b815233600482015260240162000603565b600080546001600160a01b038381166001600160a01b0319831681178455604051919092169283917f8be0079c531659141344cd1fd0a4f28419497f9722a3daafe3b4186f6b6457e09190a35050565b611b8a8062000d3283390190565b634e487b7160e01b600052604160045260246000fd5b600082601f8301126200084657600080fd5b813567ffffffffffffffff808211156200086457620008646200081e565b604051601f8301601f19908116603f011681019082821181831017156200088f576200088f6200081e565b81604052838152866020858801011115620008a957600080fd5b836020870160208301376000602085830101528094505050505092915050565b60008060408385031215620008dd57600080fd5b823567ffffffffffffffff80821115620008f657600080fd5b620009048683870162000834565b935060208501359150808211156200091b57600080fd5b506200092a8582860162000834565b9150509250929050565b80356001600160a01b03811681146200094c57600080fd5b919050565b600080604083850312156200096557600080fd5b620009708362000934565b946020939093013593505050565b6000815180845260005b81811015620009a65760208185018101518683018201520162000988565b506000602082860101526020601f19601f83011685010191505092915050565b60006020808301818452808551808352604092508286019150828160051b87010184880160005b8381101562000a7757888303603f19018552815180516001600160a01b0390811685528882015160a08a8701819052919062000a2c838801826200097e565b925050888301518683038a88015262000a4683826200097e565b60608581015190931692880192909252506080928301519290950191909152509386019390860190600101620009ed565b509098975050505050505050565b60006020828403121562000a9857600080fd5b62000aa38262000934565b9392505050565b6020808252825182820181905260009190848201906040850190845b8181101562000aed5783516001600160a01b03168352928401929184019160010162000ac6565b50909695505050505050565b60006020828403121562000b0c57600080fd5b5035919050565b600060018060a01b03808816835260a0602084015262000b3760a08401886200097e565b838103604085015262000b4b81886200097e565b9590911660608401525050608001529392505050565b60608152600062000b7660608301866200097e565b828103602084015262000b8a81866200097e565b91505060018060a01b0383166040830152949350505050565b600181811c9082168062000bb857607f821691505b60208210810362000bd957634e487b7160e01b600052602260045260246000fd5b50919050565b601f82111562000c2d57600081815260208120601f850160051c8101602086101562000c085750805b601f850160051c820191505b8181101562000c295782815560010162000c14565b5050505b505050565b815167ffffffffffffffff81111562000c4f5762000c4f6200081e565b62000c678162000c60845462000ba3565b8462000bdf565b602080601f83116001811462000c9f576000841562000c865750858301515b600019600386901b1c1916600185901b17855562000c29565b600085815260208120601f198616915b8281101562000cd05788860151825594840194600190910190840162000caf565b508582101562000cef5787850151600019600388901b60f8161c191681555b5050505050600190811b01905550565b60408152600062000d1460408301856200097e565b828103602084015262000d2881856200097e565b9594505050505056fe60806040523480156200001157600080fd5b5060405162001b8a38038062001b8a8339810160408190526200003491620001b8565b8083836000620000458382620002d4565b506001620000548282620002d4565b5050506001600160a01b0381166200008657604051631e4fbdf760e01b81526000600482015260240160405180910390fd5b6200009181620000a1565b50506001600c5550620003a09050565b600b80546001600160a01b038381166001600160a01b0319831681179093556040519116919082907f8be0079c531659141344cd1fd0a4f28419497f9722a3daafe3b4186f6b6457e090600090a35050565b634e487b7160e01b600052604160045260246000fd5b600082601f8301126200011b57600080fd5b81516001600160401b0380821115620001385762000138620000f3565b604051601f8301601f19908116603f01168101908282118183101715620001635762000163620000f3565b816040528381526020925086838588010111156200018057600080fd5b600091505b83821015620001a4578582018301518183018401529082019062000185565b600093810190920192909252949350505050565b600080600060608486031215620001ce57600080fd5b83516001600160401b0380821115620001e657600080fd5b620001f48783880162000109565b945060208601519150808211156200020b57600080fd5b506200021a8682870162000109565b604086015190935090506001600160a01b03811681146200023a57600080fd5b809150509250925092565b600181811c908216806200025a57607f821691505b6020821081036200027b57634e487b7160e01b600052602260045260246000fd5b50919050565b601f821115620002cf57600081815260208120601f850160051c81016020861015620002aa5750805b601f850160051c820191505b81811015620002cb57828155600101620002b6565b5050505b505050565b81516001600160401b03811115620002f057620002f0620000f3565b620003088162000301845462000245565b8462000281565b602080601f831160018114620003405760008415620003275750858301515b600019600386901b1c1916600185901b178555620002cb565b600085815260208120601f198616915b82811015620003715788860151825594840194600190910190840162000350565b5085821015620003905787850151600019600388901b60f8161c191681555b5050505050600190811b01905550565b6117da80620003b06000396000f3fe608060405234801561001057600080fd5b506004361061012c5760003560e01c806370a08231116100ad578063b88d4fde11610071578063b88d4fde14610266578063c87b56dd14610279578063d0def5211461028c578063e985e9c51461029f578063f2fde38b146102b257600080fd5b806370a082311461021f578063715018a6146102325780638da5cb5b1461023a57806395d89b411461024b578063a22cb4651461025357600080fd5b806323b872dd116100f457806323b872dd146101c05780632f745c59146101d357806342842e0e146101e65780634f6ccce7146101f95780636352211e1461020c57600080fd5b806301ffc9a71461013157806306fdde0314610159578063081812fc1461016e578063095ea7b31461019957806318160ddd146101ae575b600080fd5b61014461013f36600461125e565b6102c5565b60405190151581526020015b60405180910390f35b6101616102d6565b60405161015091906112cb565b61018161017c3660046112de565b610368565b6040516001600160a01b039091168152602001610150565b6101ac6101a7366004611313565b610391565b005b6009545b604051908152602001610150565b6101ac6101ce36600461133d565b6103a0565b6101b26101e1366004611313565b610430565b6101ac6101f436600461133d565b610495565b6101b26102073660046112de565b6104b5565b61018161021a3660046112de565b61050e565b6101b261022d366004611379565b610519565b6101ac610561565b600b546001600160a01b0316610181565b610161610575565b6101ac610261366004611394565b610584565b6101ac61027436600461145c565b61058f565b6101616102873660046112de565b6105a7565b6101b261029a3660046114d8565b6105b2565b6101446102ad36600461153a565b6105ee565b6101ac6102c0366004611379565b61061c565b60006102d08261065a565b92915050565b6060600080546102e59061156d565b80601f01602080910402602001604051908101604052809291908181526020018280546103119061156d565b801561035e5780601f106103335761010080835404028352916020019161035e565b820191906000526020600020905b81548152906001019060200180831161034157829003601f168201915b5050505050905090565b60006103738261067f565b506000828152600460205260409020546001600160a01b03166102d0565b61039c8282336106b8565b5050565b6001600160a01b0382166103cf57604051633250574960e11b8152600060048201526024015b60405180910390fd5b60006103dc8383336106c5565b9050836001600160a01b0316816001600160a01b03161461042a576040516364283d7b60e01b81526001600160a01b03808616600483015260248201849052821660448201526064016103c6565b50505050565b600061043b83610519565b821061046c5760405163295f44f760e21b81526001600160a01b0384166004820152602481018390526044016103c6565b506001600160a01b03919091166000908152600760209081526040808320938352929052205490565b6104b08383836040518060200160405280600081525061058f565b505050565b60006104c060095490565b82106104e95760405163295f44f760e21b815260006004820152602481018390526044016103c6565b600982815481106104fc576104fc6115a7565b90600052602060002001549050919050565b60006102d08261067f565b60006001600160a01b038216610545576040516322718ad960e21b8152600060048201526024016103c6565b506001600160a01b031660009081526003602052604090205490565b6105696106da565b6105736000610707565b565b6060600180546102e59061156d565b61039c338383610759565b61059a8484846103a0565b61042a33858585856107f8565b60606102d082610923565b60006105bc6106da565b600c8054600091826105cd836115d3565b9190505590506105dd8482610a2c565b6105e78184610a91565b9392505050565b6001600160a01b03918216600090815260056020908152604080832093909416825291909152205460ff1690565b6106246106da565b6001600160a01b03811661064e57604051631e4fbdf760e01b8152600060048201526024016103c6565b61065781610707565b50565b60006001600160e01b0319821663780e9d6360e01b14806102d057506102d082610ae1565b6000818152600260205260408120546001600160a01b0316806102d057604051637e27328960e01b8152600481018490526024016103c6565b6104b08383836001610b06565b60006106d2848484610c0c565b949350505050565b600b546001600160a01b031633146105735760405163118cdaa760e01b81523360048201526024016103c6565b600b80546001600160a01b038381166001600160a01b0319831681179093556040519116919082907f8be0079c531659141344cd1fd0a4f28419497f9722a3daafe3b4186f6b6457e090600090a35050565b6001600160a01b03821661078b57604051630b61174360e31b81526001600160a01b03831660048201526024016103c6565b6001600160a01b03838116600081815260056020908152604080832094871680845294825291829020805460ff191686151590811790915591519182527f17307eab39ab6107e8899845ad3d59bd9653f200f220920489ca2b5937696c31910160405180910390a3505050565b6001600160a01b0383163b1561091c57604051630a85bd0160e11b81526001600160a01b0384169063150b7a029061083a9088908890879087906004016115ec565b6020604051808303816000875af1925050508015610875575060408051601f3d908101601f1916820190925261087291810190611629565b60015b6108de573d8080156108a3576040519150601f19603f3d011682016040523d82523d6000602084013e6108a8565b606091505b5080516000036108d657604051633250574960e11b81526001600160a01b03851660048201526024016103c6565b805160208201fd5b6001600160e01b03198116630a85bd0160e11b1461091a57604051633250574960e11b81526001600160a01b03851660048201526024016103c6565b505b5050505050565b606061092e8261067f565b50600082815260066020526040812080546109489061156d565b80601f01602080910402602001604051908101604052809291908181526020018280546109749061156d565b80156109c15780601f10610996576101008083540402835291602001916109c1565b820191906000526020600020905b8154815290600101906020018083116109a457829003601f168201915b5050505050905060006109df60408051602081019091526000815290565b905080516000036109f1575092915050565b815115610a23578082604051602001610a0b929190611646565b60405160208183030381529060405292505050919050565b6106d284610cd9565b6001600160a01b038216610a5657604051633250574960e11b8152600060048201526024016103c6565b6000610a64838360006106c5565b90506001600160a01b038116156104b0576040516339e3563760e11b8152600060048201526024016103c6565b6000828152600660205260409020610aa982826116bb565b506040518281527ff8e1a15aba9398e019f0b49df1a4fde98ee17ae345cb5f6b5e2c27f5033e8ce79060200160405180910390a15050565b60006001600160e01b03198216632483248360e11b14806102d057506102d082610d4d565b8080610b1a57506001600160a01b03821615155b15610bdc576000610b2a8461067f565b90506001600160a01b03831615801590610b565750826001600160a01b0316816001600160a01b031614155b8015610b695750610b6781846105ee565b155b15610b925760405163a9fbf51f60e01b81526001600160a01b03841660048201526024016103c6565b8115610bda5783856001600160a01b0316826001600160a01b03167f8c5be1e5ebec7d5bd14f71427d1e84f3dd0314c0f7b2291e5b200ac8c7c3b92560405160405180910390a45b505b5050600090815260046020526040902080546001600160a01b0319166001600160a01b0392909216919091179055565b600080610c1a858585610d9d565b90506001600160a01b038116610c7757610c7284600980546000838152600a60205260408120829055600182018355919091527f6e1540171b6c0c960b71a7020d9f60077f6af931a8bbf590da0223dacf75c7af0155565b610c9a565b846001600160a01b0316816001600160a01b031614610c9a57610c9a8185610e96565b6001600160a01b038516610cb657610cb184610f17565b6106d2565b846001600160a01b0316816001600160a01b0316146106d2576106d28585610fc6565b6060610ce48261067f565b506000610cfc60408051602081019091526000815290565b90506000815111610d1c57604051806020016040528060008152506105e7565b80610d2684611016565b604051602001610d37929190611646565b6040516020818303038152906040529392505050565b60006001600160e01b031982166380ac58cd60e01b1480610d7e57506001600160e01b03198216635b5e139f60e01b145b806102d057506301ffc9a760e01b6001600160e01b03198316146102d0565b6000828152600260205260408120546001600160a01b0390811690831615610dca57610dca8184866110a9565b6001600160a01b03811615610e0857610de7600085600080610b06565b6001600160a01b038116600090815260036020526040902080546000190190555b6001600160a01b03851615610e37576001600160a01b0385166000908152600360205260409020805460010190555b60008481526002602052604080822080546001600160a01b0319166001600160a01b0389811691821790925591518793918516917fddf252ad1be2c89b69c2b068fc378daa952ba7f163c4a11628f55a4df523b3ef91a4949350505050565b6000610ea183610519565b6000838152600860209081526040808320546001600160a01b0388168452600790925290912091925090818314610ef857600083815260208281526040808320548584528184208190558352600890915290208290555b6000938452600860209081526040808620869055938552525081205550565b600954600090610f299060019061177b565b6000838152600a602052604081205460098054939450909284908110610f5157610f516115a7565b906000526020600020015490508060098381548110610f7257610f726115a7565b6000918252602080832090910192909255828152600a90915260408082208490558582528120556009805480610faa57610faa61178e565b6001900381819060005260206000200160009055905550505050565b60006001610fd384610519565b610fdd919061177b565b6001600160a01b039093166000908152600760209081526040808320868452825280832085905593825260089052919091209190915550565b606060006110238361110d565b600101905060008167ffffffffffffffff811115611043576110436113d0565b6040519080825280601f01601f19166020018201604052801561106d576020820181803683370190505b5090508181016020015b600019016f181899199a1a9b1b9c1cb0b131b232b360811b600a86061a8153600a850494508461107757509392505050565b6110b48383836111e5565b6104b0576001600160a01b0383166110e257604051637e27328960e01b8152600481018290526024016103c6565b60405163177e802f60e01b81526001600160a01b0383166004820152602481018290526044016103c6565b60008072184f03e93ff9f4daa797ed6e38ed64bf6a1f0160401b831061114c5772184f03e93ff9f4daa797ed6e38ed64bf6a1f0160401b830492506040015b6d04ee2d6d415b85acef81000000008310611178576d04ee2d6d415b85acef8100000000830492506020015b662386f26fc10000831061119657662386f26fc10000830492506010015b6305f5e10083106111ae576305f5e100830492506008015b61271083106111c257612710830492506004015b606483106111d4576064830492506002015b600a83106102d05760010192915050565b60006001600160a01b038316158015906106d25750826001600160a01b0316846001600160a01b0316148061121f575061121f84846105ee565b806106d25750506000908152600460205260409020546001600160a01b03908116911614919050565b6001600160e01b03198116811461065757600080fd5b60006020828403121561127057600080fd5b81356105e781611248565b60005b8381101561129657818101518382015260200161127e565b50506000910152565b600081518084526112b781602086016020860161127b565b601f01601f19169290920160200192915050565b6020815260006105e7602083018461129f565b6000602082840312156112f057600080fd5b5035919050565b80356001600160a01b038116811461130e57600080fd5b919050565b6000806040838503121561132657600080fd5b61132f836112f7565b946020939093013593505050565b60008060006060848603121561135257600080fd5b61135b846112f7565b9250611369602085016112f7565b9150604084013590509250925092565b60006020828403121561138b57600080fd5b6105e7826112f7565b600080604083850312156113a757600080fd5b6113b0836112f7565b9150602083013580151581146113c557600080fd5b809150509250929050565b634e487b7160e01b600052604160045260246000fd5b600067ffffffffffffffff80841115611401576114016113d0565b604051601f8501601f19908116603f01168101908282118183101715611429576114296113d0565b8160405280935085815286868601111561144257600080fd5b858560208301376000602087830101525050509392505050565b6000806000806080858703121561147257600080fd5b61147b856112f7565b9350611489602086016112f7565b925060408501359150606085013567ffffffffffffffff8111156114ac57600080fd5b8501601f810187136114bd57600080fd5b6114cc878235602084016113e6565b91505092959194509250565b600080604083850312156114eb57600080fd5b6114f4836112f7565b9150602083013567ffffffffffffffff81111561151057600080fd5b8301601f8101851361152157600080fd5b611530858235602084016113e6565b9150509250929050565b6000806040838503121561154d57600080fd5b611556836112f7565b9150611564602084016112f7565b90509250929050565b600181811c9082168061158157607f821691505b6020821081036115a157634e487b7160e01b600052602260045260246000fd5b50919050565b634e487b7160e01b600052603260045260246000fd5b634e487b7160e01b600052601160045260246000fd5b6000600182016115e5576115e56115bd565b5060010190565b6001600160a01b038581168252841660208201526040810183905260806060820181905260009061161f9083018461129f565b9695505050505050565b60006020828403121561163b57600080fd5b81516105e781611248565b6000835161165881846020880161127b565b83519083019061166c81836020880161127b565b01949350505050565b601f8211156104b057600081815260208120601f850160051c8101602086101561169c5750805b601f850160051c820191505b8181101561091a578281556001016116a8565b815167ffffffffffffffff8111156116d5576116d56113d0565b6116e9816116e3845461156d565b84611675565b602080601f83116001811461171e57600084156117065750858301515b600019600386901b1c1916600185901b17855561091a565b600085815260208120601f198616915b8281101561174d5788860151825594840194600190910190840161172e565b508582101561176b5787850151600019600388901b60f8161c191681555b5050505050600190811b01905550565b818103818111156102d0576102d06115bd565b634e487b7160e01b600052603160045260246000fdfea2646970667358221220e6f39a947aebb84161d0307ab563ac2943201c460a97d154a95f130928d5354c64736f6c63430008140033a26469706673582212205b936124ec86533ec6fe1a8c9beeaaa883c954830f8653d177f75d490243c0fa64736f6c63430008140033",
  "linkReferences": {},
  "deployedLinkReferences": {}
}